{
  "_format": "hh-sol-artifact-1",
  "contractName": "DisputeMultiSig",
  "sourceName": "contracts/DisputeMultiSig.sol",
  "abi": [
    {
      "inputs": [
        {
          "internalType": "address[]",
          "name": "_arbiters",
          "type": "address[]"
        },
        {
          "internalType": "uint256",
          "name": "_required",
          "type": "uint256"
        }
      ],
      "stateMutability": "nonpayable",
      "type": "constructor"
    },
    {
      "anonymous": false,
      "inputs": [
        {
          "indexed": true,
          "internalType": "address",
          "name": "ticket",
          "type": "address"
        },
        {
          "indexed": false,
          "internalType": "bool",
          "name": "payWorker",
          "type": "bool"
        }
      ],
      "name": "Resolved",
      "type": "event"
    },
    {
      "anonymous": false,
      "inputs": [
        {
          "indexed": true,
          "internalType": "address",
          "name": "ticket",
          "type": "address"
        },
        {
          "indexed": true,
          "internalType": "address",
          "name": "arbiter",
          "type": "address"
        },
        {
          "indexed": false,
          "internalType": "bool",
          "name": "payWorker",
          "type": "bool"
        }
      ],
      "name": "Voted",
      "type": "event"
    },
    {
      "inputs": [
        {
          "internalType": "uint256",
          "name": "",
          "type": "uint256"
        }
      ],
      "name": "arbiters",
      "outputs": [
        {
          "internalType": "address",
          "name": "",
          "type": "address"
        }
      ],
      "stateMutability": "view",
      "type": "function"
    },
    {
      "inputs": [],
      "name": "getArbiters",
      "outputs": [
        {
          "internalType": "address[]",
          "name": "",
          "type": "address[]"
        }
      ],
      "stateMutability": "view",
      "type": "function"
    },
    {
      "inputs": [
        {
          "internalType": "address",
          "name": "ticket",
          "type": "address"
        }
      ],
      "name": "getVotes",
      "outputs": [
        {
          "internalType": "uint256",
          "name": "forWorker",
          "type": "uint256"
        },
        {
          "internalType": "uint256",
          "name": "forCompany",
          "type": "uint256"
        },
        {
          "internalType": "bool",
          "name": "resolved",
          "type": "bool"
        }
      ],
      "stateMutability": "view",
      "type": "function"
    },
    {
      "inputs": [
        {
          "internalType": "address",
          "name": "ticket",
          "type": "address"
        },
        {
          "internalType": "address",
          "name": "arbiter",
          "type": "address"
        }
      ],
      "name": "hasVoted",
      "outputs": [
        {
          "internalType": "bool",
          "name": "",
          "type": "bool"
        }
      ],
      "stateMutability": "view",
      "type": "function"
    },
    {
      "inputs": [
        {
          "internalType": "address",
          "name": "",
          "type": "address"
        }
      ],
      "name": "isArbiter",
      "outputs": [
        {
          "internalType": "bool",
          "name": "",
          "type": "bool"
        }
      ],
      "stateMutability": "view",
      "type": "function"
    },
    {
      "inputs": [],
      "name": "required",
      "outputs": [
        {
          "internalType": "uint256",
          "name": "",
          "type": "uint256"
        }
      ],
      "stateMutability": "view",
      "type": "function"
    },
    {
      "inputs": [
        {
          "internalType": "address",
          "name": "ticket",
          "type": "address"
        },
        {
          "internalType": "bool",
          "name": "payWorker",
          "type": "bool"
        }
      ],
      "name": "vote",
      "outputs": [],
      "stateMutability": "nonpayable",
      "type": "function"
    }
  ],
  "bytecode": "0x60806040523480156200001157600080fd5b50604051620015bc380380620015bc833981810160405281019062000037919062000505565b60008251116200007e576040517f08c379a00000000000000000000000000000000000000000000000000000000081526004016200007590620005cc565b60405180910390fd5b60008111801562000090575081518111155b620000d2576040517f08c379a0000000000000000000000000000000000000000000000000000000008152600401620000c9906200063e565b60405180910390fd5b60005b8251811015620002cc576000838281518110620000f757620000f662000660565b5b60200260200101519050600073ffffffffffffffffffffffffffffffffffffffff168173ffffffffffffffffffffffffffffffffffffffff160362000173576040517f08c379a00000000000000000000000000000000000000000000000000000000081526004016200016a90620006df565b60405180910390fd5b600160008273ffffffffffffffffffffffffffffffffffffffff1673ffffffffffffffffffffffffffffffffffffffff16815260200190815260200160002060009054906101000a900460ff161562000203576040517f08c379a0000000000000000000000000000000000000000000000000000000008152600401620001fa9062000751565b60405180910390fd5b6000819080600181540180825580915050600190039060005260206000200160009091909190916101000a81548173ffffffffffffffffffffffffffffffffffffffff021916908373ffffffffffffffffffffffffffffffffffffffff16021790555060018060008373ffffffffffffffffffffffffffffffffffffffff1673ffffffffffffffffffffffffffffffffffffffff16815260200190815260200160002060006101000a81548160ff021916908315150217905550508080600101915050620000d5565b5080600281905550505062000773565b6000604051905090565b600080fd5b600080fd5b600080fd5b6000601f19601f8301169050919050565b7f4e487b7100000000000000000000000000000000000000000000000000000000600052604160045260246000fd5b6200034082620002f5565b810181811067ffffffffffffffff8211171562000362576200036162000306565b5b80604052505050565b600062000377620002dc565b905062000385828262000335565b919050565b600067ffffffffffffffff821115620003a857620003a762000306565b5b602082029050602081019050919050565b600080fd5b600073ffffffffffffffffffffffffffffffffffffffff82169050919050565b6000620003eb82620003be565b9050919050565b620003fd81620003de565b81146200040957600080fd5b50565b6000815190506200041d81620003f2565b92915050565b60006200043a62000434846200038a565b6200036b565b9050808382526020820190506020840283018581111562000460576200045f620003b9565b5b835b818110156200048d57806200047888826200040c565b84526020840193505060208101905062000462565b5050509392505050565b600082601f830112620004af57620004ae620002f0565b5b8151620004c184826020860162000423565b91505092915050565b6000819050919050565b620004df81620004ca565b8114620004eb57600080fd5b50565b600081519050620004ff81620004d4565b92915050565b600080604083850312156200051f576200051e620002e6565b5b600083015167ffffffffffffffff81111562000540576200053f620002eb565b5b6200054e8582860162000497565b92505060206200056185828601620004ee565b9150509250929050565b600082825260208201905092915050565b7f4e6f206172626974657273000000000000000000000000000000000000000000600082015250565b6000620005b4600b836200056b565b9150620005c1826200057c565b602082019050919050565b60006020820190508181036000830152620005e781620005a5565b9050919050565b7f496e76616c696420726571756972656400000000000000000000000000000000600082015250565b6000620006266010836200056b565b91506200063382620005ee565b602082019050919050565b60006020820190508181036000830152620006598162000617565b9050919050565b7f4e487b7100000000000000000000000000000000000000000000000000000000600052603260045260246000fd5b7f5a65726f20617262697465720000000000000000000000000000000000000000600082015250565b6000620006c7600c836200056b565b9150620006d4826200068f565b602082019050919050565b60006020820190508181036000830152620006fa81620006b8565b9050919050565b7f4475706c69636174652061726269746572000000000000000000000000000000600082015250565b6000620007396011836200056b565b9150620007468262000701565b602082019050919050565b600060208201905081810360008301526200076c816200072a565b9050919050565b610e3980620007836000396000f3fe608060405234801561001057600080fd5b506004361061007d5760003560e01c8063bd041c4d1161005b578063bd041c4d14610114578063dc8452cd14610130578063e22fa7241461014e578063f5bbc6d51461016c5761007d565b80634d4d2b1c146100825780635a7a6afd146100b25780639ab24eb0146100e2575b600080fd5b61009c600480360381019061009791906108ee565b61019c565b6040516100a99190610949565b60405180910390f35b6100cc60048036038101906100c7919061099a565b610233565b6040516100d991906109d6565b60405180910390f35b6100fc60048036038101906100f791906109f1565b610272565b60405161010b93929190610a2d565b60405180910390f35b61012e60048036038101906101299190610a90565b6102e3565b005b6101386107d7565b6040516101459190610ad0565b60405180910390f35b6101566107dd565b6040516101639190610ba9565b60405180910390f35b610186600480360381019061018191906109f1565b61086b565b6040516101939190610949565b60405180910390f35b6000600360008473ffffffffffffffffffffffffffffffffffffffff1673ffffffffffffffffffffffffffffffffffffffff16815260200190815260200160002060030160008373ffffffffffffffffffffffffffffffffffffffff1673ffffffffffffffffffffffffffffffffffffffff16815260200190815260200160002060009054906101000a900460ff16905092915050565b6000818154811061024357600080fd5b906000526020600020016000915054906101000a900473ffffffffffffffffffffffffffffffffffffffff1681565b600080600080600360008673ffffffffffffffffffffffffffffffffffffffff1673ffffffffffffffffffffffffffffffffffffffff1681526020019081526020016000209050806000015481600101548260020160009054906101000a900460ff16935093509350509193909250565b600160003373ffffffffffffffffffffffffffffffffffffffff1673ffffffffffffffffffffffffffffffffffffffff16815260200190815260200160002060009054906101000a900460ff1661036f576040517f08c379a000000000000000000000000000000000000000000000000000000000815260040161036690610c28565b60405180910390fd5b600073ffffffffffffffffffffffffffffffffffffffff168273ffffffffffffffffffffffffffffffffffffffff16036103de576040517f08c379a00000000000000000000000000000000000000000000000000000000081526004016103d590610c94565b60405180910390fd5b6000600360008473ffffffffffffffffffffffffffffffffffffffff1673ffffffffffffffffffffffffffffffffffffffff16815260200190815260200160002090508060020160009054906101000a900460ff1615610473576040517f08c379a000000000000000000000000000000000000000000000000000000000815260040161046a90610d00565b60405180910390fd5b8060030160003373ffffffffffffffffffffffffffffffffffffffff1673ffffffffffffffffffffffffffffffffffffffff16815260200190815260200160002060009054906101000a900460ff1615610502576040517f08c379a00000000000000000000000000000000000000000000000000000000081526004016104f990610d6c565b60405180910390fd5b60018160030160003373ffffffffffffffffffffffffffffffffffffffff1673ffffffffffffffffffffffffffffffffffffffff16815260200190815260200160002060006101000a81548160ff02191690831515021790555081156105815780600001600081548092919061057790610dbb565b919050555061059c565b80600101600081548092919061059690610dbb565b91905055505b3373ffffffffffffffffffffffffffffffffffffffff168373ffffffffffffffffffffffffffffffffffffffff167ff01e0648b75d055c003bb115baaa99af91e34a86a5405eb8b96e451bcb1c79f0846040516105f99190610949565b60405180910390a36002548160000154106106eb5760018160020160006101000a81548160ff0219169083151502179055508273ffffffffffffffffffffffffffffffffffffffff166389e1e82a60016040518263ffffffff1660e01b81526004016106659190610949565b600060405180830381600087803b15801561067f57600080fd5b505af1158015610693573d6000803e3d6000fd5b505050508273ffffffffffffffffffffffffffffffffffffffff167fc5767b31234c04312d2a3b199c34fe17682935203f9690186b7a73c329ae250260016040516106de9190610949565b60405180910390a26107d2565b6002548160010154106107d15760018160020160006101000a81548160ff0219169083151502179055508273ffffffffffffffffffffffffffffffffffffffff166389e1e82a60006040518263ffffffff1660e01b815260040161074f9190610949565b600060405180830381600087803b15801561076957600080fd5b505af115801561077d573d6000803e3d6000fd5b505050508273ffffffffffffffffffffffffffffffffffffffff167fc5767b31234c04312d2a3b199c34fe17682935203f9690186b7a73c329ae250260006040516107c89190610949565b60405180910390a25b5b505050565b60025481565b6060600080548060200260200160405190810160405280929190818152602001828054801561086157602002820191906000526020600020905b8160009054906101000a900473ffffffffffffffffffffffffffffffffffffffff1673ffffffffffffffffffffffffffffffffffffffff1681526020019060010190808311610817575b5050505050905090565b60016020528060005260406000206000915054906101000a900460ff1681565b600080fd5b600073ffffffffffffffffffffffffffffffffffffffff82169050919050565b60006108bb82610890565b9050919050565b6108cb816108b0565b81146108d657600080fd5b50565b6000813590506108e8816108c2565b92915050565b600080604083850312156109055761090461088b565b5b6000610913858286016108d9565b9250506020610924858286016108d9565b9150509250929050565b60008115159050919050565b6109438161092e565b82525050565b600060208201905061095e600083018461093a565b92915050565b6000819050919050565b61097781610964565b811461098257600080fd5b50565b6000813590506109948161096e565b92915050565b6000602082840312156109b0576109af61088b565b5b60006109be84828501610985565b91505092915050565b6109d0816108b0565b82525050565b60006020820190506109eb60008301846109c7565b92915050565b600060208284031215610a0757610a0661088b565b5b6000610a15848285016108d9565b91505092915050565b610a2781610964565b82525050565b6000606082019050610a426000830186610a1e565b610a4f6020830185610a1e565b610a5c604083018461093a565b949350505050565b610a6d8161092e565b8114610a7857600080fd5b50565b600081359050610a8a81610a64565b92915050565b60008060408385031215610aa757610aa661088b565b5b6000610ab5858286016108d9565b9250506020610ac685828601610a7b565b9150509250929050565b6000602082019050610ae56000830184610a1e565b92915050565b600081519050919050565b600082825260208201905092915050565b6000819050602082019050919050565b610b20816108b0565b82525050565b6000610b328383610b17565b60208301905092915050565b6000602082019050919050565b6000610b5682610aeb565b610b608185610af6565b9350610b6b83610b07565b8060005b83811015610b9c578151610b838882610b26565b9750610b8e83610b3e565b925050600181019050610b6f565b5085935050505092915050565b60006020820190508181036000830152610bc38184610b4b565b905092915050565b600082825260208201905092915050565b7f4e6f7420616e2061726269746572000000000000000000000000000000000000600082015250565b6000610c12600e83610bcb565b9150610c1d82610bdc565b602082019050919050565b60006020820190508181036000830152610c4181610c05565b9050919050565b7f496e76616c6964207469636b6574000000000000000000000000000000000000600082015250565b6000610c7e600e83610bcb565b9150610c8982610c48565b602082019050919050565b60006020820190508181036000830152610cad81610c71565b9050919050565b7f4469737075746520616c7265616479207265736f6c7665640000000000000000600082015250565b6000610cea601883610bcb565b9150610cf582610cb4565b602082019050919050565b60006020820190508181036000830152610d1981610cdd565b9050919050565b7f416c726561647920766f74656400000000000000000000000000000000000000600082015250565b6000610d56600d83610bcb565b9150610d6182610d20565b602082019050919050565b60006020820190508181036000830152610d8581610d49565b9050919050565b7f4e487b7100000000000000000000000000000000000000000000000000000000600052601160045260246000fd5b6000610dc682610964565b91507fffffffffffffffffffffffffffffffffffffffffffffffffffffffffffffffff8203610df857610df7610d8c565b5b60018201905091905056fea2646970667358221220e06ae5e218c6d4c96ee2397928b31fc9268104001a7af56f320ee1dd9e07797264736f6c63430008180033",
  "linkReferences": {},
  "deployedLinkReferences": {}
}