{
  "_format": "hh-sol-artifact-1",
  "contractName": "TicketEscrow",
  "sourceName": "contracts/TicketEscrow.sol",
  "abi": [
    {
      "inputs": [],
      "stateMutability": "nonpayable",
      "type": "constructor"
    },
    {
      "anonymous": false,
      "inputs": [
        {
          "indexed": true,
          "internalType": "address",
          "name": "openedBy",
          "type": "address"
        }
      ],
      "name": "DisputeOpened",
      "type": "event"
    },
    {
      "anonymous": false,
      "inputs": [
        {
          "indexed": true,
          "internalType": "address",
          "name": "worker",
          "type": "address"
        },
        {
          "indexed": false,
          "internalType": "uint256",
          "name": "amount",
          "type": "uint256"
        }
      ],
      "name": "Paid",
      "type": "event"
    },
    {
      "anonymous": false,
      "inputs": [
        {
          "indexed": true,
          "internalType": "address",
          "name": "worker",
          "type": "address"
        },
        {
          "indexed": false,
          "internalType": "string",
          "name": "proofCID",
          "type": "string"
        },
        {
          "indexed": false,
          "internalType": "string",
          "name": "proofNote",
          "type": "string"
        },
        {
          "indexed": false,
          "internalType": "uint256",
          "name": "submittedAt",
          "type": "uint256"
        }
      ],
      "name": "ProofSubmitted",
      "type": "event"
    },
    {
      "anonymous": false,
      "inputs": [
        {
          "indexed": true,
          "internalType": "address",
          "name": "company",
          "type": "address"
        },
        {
          "indexed": false,
          "internalType": "uint256",
          "name": "amount",
          "type": "uint256"
        }
      ],
      "name": "Refunded",
      "type": "event"
    },
    {
      "anonymous": false,
      "inputs": [
        {
          "indexed": false,
          "internalType": "string",
          "name": "reason",
          "type": "string"
        },
        {
          "indexed": false,
          "internalType": "uint256",
          "name": "timestamp",
          "type": "uint256"
        }
      ],
      "name": "SubmissionRejected",
      "type": "event"
    },
    {
      "anonymous": false,
      "inputs": [
        {
          "indexed": true,
          "internalType": "address",
          "name": "company",
          "type": "address"
        },
        {
          "indexed": false,
          "internalType": "uint256",
          "name": "amount",
          "type": "uint256"
        }
      ],
      "name": "TicketCancelled",
      "type": "event"
    },
    {
      "anonymous": false,
      "inputs": [
        {
          "indexed": true,
          "internalType": "address",
          "name": "worker",
          "type": "address"
        },
        {
          "indexed": false,
          "internalType": "uint256",
          "name": "claimedAt",
          "type": "uint256"
        }
      ],
      "name": "TicketClaimed",
      "type": "event"
    },
    {
      "inputs": [],
      "name": "amount",
      "outputs": [
        {
          "internalType": "uint256",
          "name": "",
          "type": "uint256"
        }
      ],
      "stateMutability": "view",
      "type": "function"
    },
    {
      "inputs": [],
      "name": "approveSubmission",
      "outputs": [],
      "stateMutability": "nonpayable",
      "type": "function"
    },
    {
      "inputs": [],
      "name": "approvedAt",
      "outputs": [
        {
          "internalType": "uint256",
          "name": "",
          "type": "uint256"
        }
      ],
      "stateMutability": "view",
      "type": "function"
    },
    {
      "inputs": [],
      "name": "arbiter",
      "outputs": [
        {
          "internalType": "address",
          "name": "",
          "type": "address"
        }
      ],
      "stateMutability": "view",
      "type": "function"
    },
    {
      "inputs": [],
      "name": "cancelOpenTicket",
      "outputs": [],
      "stateMutability": "nonpayable",
      "type": "function"
    },
    {
      "inputs": [],
      "name": "claimTicket",
      "outputs": [],
      "stateMutability": "nonpayable",
      "type": "function"
    },
    {
      "inputs": [],
      "name": "claimedAt",
      "outputs": [
        {
          "internalType": "uint256",
          "name": "",
          "type": "uint256"
        }
      ],
      "stateMutability": "view",
      "type": "function"
    },
    {
      "inputs": [],
      "name": "company",
      "outputs": [
        {
          "internalType": "address payable",
          "name": "",
          "type": "address"
        }
      ],
      "stateMutability": "view",
      "type": "function"
    },
    {
      "inputs": [],
      "name": "createdAt",
      "outputs": [
        {
          "internalType": "uint256",
          "name": "",
          "type": "uint256"
        }
      ],
      "stateMutability": "view",
      "type": "function"
    },
    {
      "inputs": [],
      "name": "deadline",
      "outputs": [
        {
          "internalType": "uint256",
          "name": "",
          "type": "uint256"
        }
      ],
      "stateMutability": "view",
      "type": "function"
    },
    {
      "inputs": [],
      "name": "detailsCID",
      "outputs": [
        {
          "internalType": "string",
          "name": "",
          "type": "string"
        }
      ],
      "stateMutability": "view",
      "type": "function"
    },
    {
      "inputs": [],
      "name": "disputeByCompany",
      "outputs": [],
      "stateMutability": "nonpayable",
      "type": "function"
    },
    {
      "inputs": [],
      "name": "disputeByWorker",
      "outputs": [],
      "stateMutability": "nonpayable",
      "type": "function"
    },
    {
      "inputs": [],
      "name": "factory",
      "outputs": [
        {
          "internalType": "address",
          "name": "",
          "type": "address"
        }
      ],
      "stateMutability": "view",
      "type": "function"
    },
    {
      "inputs": [
        {
          "internalType": "address",
          "name": "_company",
          "type": "address"
        },
        {
          "internalType": "uint256",
          "name": "_deadline",
          "type": "uint256"
        },
        {
          "internalType": "string",
          "name": "_title",
          "type": "string"
        },
        {
          "internalType": "string",
          "name": "_detailsCID",
          "type": "string"
        }
      ],
      "name": "init",
      "outputs": [],
      "stateMutability": "payable",
      "type": "function"
    },
    {
      "inputs": [],
      "name": "proofCID",
      "outputs": [
        {
          "internalType": "string",
          "name": "",
          "type": "string"
        }
      ],
      "stateMutability": "view",
      "type": "function"
    },
    {
      "inputs": [],
      "name": "proofNote",
      "outputs": [
        {
          "internalType": "string",
          "name": "",
          "type": "string"
        }
      ],
      "stateMutability": "view",
      "type": "function"
    },
    {
      "inputs": [],
      "name": "rejectionReason",
      "outputs": [
        {
          "internalType": "string",
          "name": "",
          "type": "string"
        }
      ],
      "stateMutability": "view",
      "type": "function"
    },
    {
      "inputs": [
        {
          "internalType": "string",
          "name": "reason",
          "type": "string"
        }
      ],
      "name": "requestResubmission",
      "outputs": [],
      "stateMutability": "nonpayable",
      "type": "function"
    },
    {
      "inputs": [
        {
          "internalType": "bool",
          "name": "payWorker_",
          "type": "bool"
        }
      ],
      "name": "resolveDispute",
      "outputs": [],
      "stateMutability": "nonpayable",
      "type": "function"
    },
    {
      "inputs": [
        {
          "internalType": "address",
          "name": "_arbiter",
          "type": "address"
        }
      ],
      "name": "setArbiter",
      "outputs": [],
      "stateMutability": "nonpayable",
      "type": "function"
    },
    {
      "inputs": [],
      "name": "status",
      "outputs": [
        {
          "internalType": "enum TicketEscrow.Status",
          "name": "",
          "type": "uint8"
        }
      ],
      "stateMutability": "view",
      "type": "function"
    },
    {
      "inputs": [
        {
          "internalType": "string",
          "name": "_proofCID",
          "type": "string"
        },
        {
          "internalType": "string",
          "name": "_proofNote",
          "type": "string"
        }
      ],
      "name": "submitProof",
      "outputs": [],
      "stateMutability": "nonpayable",
      "type": "function"
    },
    {
      "inputs": [],
      "name": "submittedAt",
      "outputs": [
        {
          "internalType": "uint256",
          "name": "",
          "type": "uint256"
        }
      ],
      "stateMutability": "view",
      "type": "function"
    },
    {
      "inputs": [],
      "name": "title",
      "outputs": [
        {
          "internalType": "string",
          "name": "",
          "type": "string"
        }
      ],
      "stateMutability": "view",
      "type": "function"
    },
    {
      "inputs": [],
      "name": "worker",
      "outputs": [
        {
          "internalType": "address payable",
          "name": "",
          "type": "address"
        }
      ],
      "stateMutability": "view",
      "type": "function"
    }
  ],
  "bytecode": "0x608060405234801561001057600080fd5b50336000806101000a81548173ffffffffffffffffffffffffffffffffffffffff021916908373ffffffffffffffffffffffffffffffffffffffff1602179055506132ee806100606000396000f3fe6080604052600436106101815760003560e01c80637c877b66116100d1578063c45a01551161008a578063eb28bc4311610064578063eb28bc43146104cc578063ec60993d146104e8578063f5d99a5914610513578063fe25e00a1461053e57610181565b8063c45a01551461044b578063cf09e0d014610476578063d2217fac146104a157610181565b80637c877b661461038757806387481d181461039e57806389e1e82a146103b55780639c84e6f2146103de578063a4d8c4a5146103f5578063aa8c217c1461042057610181565b806329dcb0cf1161013e578063573a4d3311610118578063573a4d33146102f15780635760a52b1461031c578063605c967e146103335780636904c94d1461035c57610181565b806329dcb0cf146102705780634a79d50c1461029b5780634d547ada146102c657610181565b806303df210814610186578063112aa7801461019d5780631c9c088a146101c65780631ca10799146101ef578063200d2ed21461021a57806326bd892614610245575b600080fd5b34801561019257600080fd5b5061019b610569565b005b3480156101a957600080fd5b506101c460048036038101906101bf919061201c565b610720565b005b3480156101d257600080fd5b506101ed60048036038101906101e891906120c7565b61092e565b005b3480156101fb57600080fd5b50610204610b00565b604051610211919061210d565b60405180910390f35b34801561022657600080fd5b5061022f610b06565b60405161023c919061219f565b60405180910390f35b34801561025157600080fd5b5061025a610b19565b604051610267919061224a565b60405180910390f35b34801561027c57600080fd5b50610285610ba7565b604051610292919061210d565b60405180910390f35b3480156102a757600080fd5b506102b0610bad565b6040516102bd919061224a565b60405180910390f35b3480156102d257600080fd5b506102db610c3b565b6040516102e8919061228d565b60405180910390f35b3480156102fd57600080fd5b50610306610c61565b604051610313919061224a565b60405180910390f35b34801561032857600080fd5b50610331610cef565b005b34801561033f57600080fd5b5061035a600480360381019061035591906122a8565b610ea9565b005b34801561036857600080fd5b506103716110c8565b60405161037e919061228d565b60405180910390f35b34801561039357600080fd5b5061039c6110ee565b005b3480156103aa57600080fd5b506103b3611264565b005b3480156103c157600080fd5b506103dc60048036038101906103d79190612361565b611414565b005b3480156103ea57600080fd5b506103f3611680565b005b34801561040157600080fd5b5061040a611967565b604051610417919061224a565b60405180910390f35b34801561042c57600080fd5b506104356119f5565b604051610442919061210d565b60405180910390f35b34801561045757600080fd5b506104606119fb565b60405161046d919061239d565b60405180910390f35b34801561048257600080fd5b5061048b611a1f565b604051610498919061210d565b60405180910390f35b3480156104ad57600080fd5b506104b6611a25565b6040516104c3919061210d565b60405180910390f35b6104e660048036038101906104e191906123e4565b611a2b565b005b3480156104f457600080fd5b506104fd611d31565b60405161050a919061224a565b60405180910390f35b34801561051f57600080fd5b50610528611dbf565b604051610535919061210d565b60405180910390f35b34801561054a57600080fd5b50610553611dc5565b604051610560919061239d565b60405180910390f35b600160009054906101000a900473ffffffffffffffffffffffffffffffffffffffff1673ffffffffffffffffffffffffffffffffffffffff163373ffffffffffffffffffffffffffffffffffffffff16146105f9576040517f08c379a00000000000000000000000000000000000000000000000000000000081526004016105f0906124d7565b60405180910390fd5b6002600681111561060d5761060c612128565b5b600f60009054906101000a900460ff16600681111561062f5761062e612128565b5b1461066f576040517f08c379a000000000000000000000000000000000000000000000000000000000815260040161066690612543565b60405180910390fd5b6004600f60006101000a81548160ff0219169083600681111561069557610694612128565b5b02179055504260088190555060006106ab611deb565b9050600260009054906101000a900473ffffffffffffffffffffffffffffffffffffffff1673ffffffffffffffffffffffffffffffffffffffff167f737c69225d647e5994eab1a6c301bf6d9232beb2759ae1e27a8966b4732bc48982604051610715919061210d565b60405180910390a250565b600160009054906101000a900473ffffffffffffffffffffffffffffffffffffffff1673ffffffffffffffffffffffffffffffffffffffff163373ffffffffffffffffffffffffffffffffffffffff16146107b0576040517f08c379a00000000000000000000000000000000000000000000000000000000081526004016107a7906124d7565b60405180910390fd5b600260068111156107c4576107c3612128565b5b600f60009054906101000a900460ff1660068111156107e6576107e5612128565b5b14610826576040517f08c379a000000000000000000000000000000000000000000000000000000000815260040161081d90612543565b60405180910390fd5b6000828290501161086c576040517f08c379a0000000000000000000000000000000000000000000000000000000008152600401610863906125af565b60405180910390fd5b8181600e918261087d929190612815565b5060405180602001604052806000815250600c908161089c91906128e5565b5060405180602001604052806000815250600d90816108bb91906128e5565b5060006007819055506001600f60006101000a81548160ff021916908360068111156108ea576108e9612128565b5b02179055507fab36db148b7c90ec8ad4b9af81db5d7ca255d69809f3bcf4d62bbb73e10f31bd828242604051610922939291906129f3565b60405180910390a15050565b60008054906101000a900473ffffffffffffffffffffffffffffffffffffffff1673ffffffffffffffffffffffffffffffffffffffff163373ffffffffffffffffffffffffffffffffffffffff16146109bc576040517f08c379a00000000000000000000000000000000000000000000000000000000081526004016109b390612a71565b60405180910390fd5b600073ffffffffffffffffffffffffffffffffffffffff16600960009054906101000a900473ffffffffffffffffffffffffffffffffffffffff1673ffffffffffffffffffffffffffffffffffffffff1614610a4d576040517f08c379a0000000000000000000000000000000000000000000000000000000008152600401610a4490612add565b60405180910390fd5b600073ffffffffffffffffffffffffffffffffffffffff168173ffffffffffffffffffffffffffffffffffffffff1603610abc576040517f08c379a0000000000000000000000000000000000000000000000000000000008152600401610ab390612b49565b60405180910390fd5b80600960006101000a81548173ffffffffffffffffffffffffffffffffffffffff021916908373ffffffffffffffffffffffffffffffffffffffff16021790555050565b60075481565b600f60009054906101000a900460ff1681565b600e8054610b2690612638565b80601f0160208091040260200160405190810160405280929190818152602001828054610b5290612638565b8015610b9f5780601f10610b7457610100808354040283529160200191610b9f565b820191906000526020600020905b815481529060010190602001808311610b8257829003601f168201915b505050505081565b60045481565b600a8054610bba90612638565b80601f0160208091040260200160405190810160405280929190818152602001828054610be690612638565b8015610c335780601f10610c0857610100808354040283529160200191610c33565b820191906000526020600020905b815481529060010190602001808311610c1657829003601f168201915b505050505081565b600260009054906101000a900473ffffffffffffffffffffffffffffffffffffffff1681565b600b8054610c6e90612638565b80601f0160208091040260200160405190810160405280929190818152602001828054610c9a90612638565b8015610ce75780601f10610cbc57610100808354040283529160200191610ce7565b820191906000526020600020905b815481529060010190602001808311610cca57829003601f168201915b505050505081565b600260009054906101000a900473ffffffffffffffffffffffffffffffffffffffff1673ffffffffffffffffffffffffffffffffffffffff163373ffffffffffffffffffffffffffffffffffffffff1614610d7f576040517f08c379a0000000000000000000000000000000000000000000000000000000008152600401610d7690612bb5565b60405180910390fd5b60026006811115610d9357610d92612128565b5b600f60009054906101000a900460ff166006811115610db557610db4612128565b5b14610df5576040517f08c379a0000000000000000000000000000000000000000000000000000000008152600401610dec90612543565b60405180910390fd5b6004544211610e39576040517f08c379a0000000000000000000000000000000000000000000000000000000008152600401610e3090612c21565b60405180910390fd5b6003600f60006101000a81548160ff02191690836006811115610e5f57610e5e612128565b5b02179055503373ffffffffffffffffffffffffffffffffffffffff167f3193a157f4c79974417914163112a3ab14f94e226ec78d3637d1f9386b6f202560405160405180910390a2565b600260009054906101000a900473ffffffffffffffffffffffffffffffffffffffff1673ffffffffffffffffffffffffffffffffffffffff163373ffffffffffffffffffffffffffffffffffffffff1614610f39576040517f08c379a0000000000000000000000000000000000000000000000000000000008152600401610f3090612bb5565b60405180910390fd5b60016006811115610f4d57610f4c612128565b5b600f60009054906101000a900460ff166006811115610f6f57610f6e612128565b5b14610faf576040517f08c379a0000000000000000000000000000000000000000000000000000000008152600401610fa690612c8d565b60405180910390fd5b60008484905011610ff5576040517f08c379a0000000000000000000000000000000000000000000000000000000008152600401610fec90612cf9565b60405180910390fd5b8383600c9182611006929190612815565b508181600d9182611018929190612815565b5060405180602001604052806000815250600e908161103791906128e5565b50426007819055506002600f60006101000a81548160ff0219169083600681111561106557611064612128565b5b02179055503373ffffffffffffffffffffffffffffffffffffffff167f08c00e6bbb190376ceb358be7f48178b5ef4cc9f6a3a2177f06f446d6bdbca35858585856007546040516110ba959493929190612d19565b60405180910390a250505050565b600160009054906101000a900473ffffffffffffffffffffffffffffffffffffffff1681565b600160009054906101000a900473ffffffffffffffffffffffffffffffffffffffff1673ffffffffffffffffffffffffffffffffffffffff163373ffffffffffffffffffffffffffffffffffffffff161461117e576040517f08c379a0000000000000000000000000000000000000000000000000000000008152600401611175906124d7565b60405180910390fd5b6002600681111561119257611191612128565b5b600f60009054906101000a900460ff1660068111156111b4576111b3612128565b5b146111f4576040517f08c379a00000000000000000000000000000000000000000000000000000000081526004016111eb90612543565b60405180910390fd5b6003600f60006101000a81548160ff0219169083600681111561121a57611219612128565b5b02179055503373ffffffffffffffffffffffffffffffffffffffff167f3193a157f4c79974417914163112a3ab14f94e226ec78d3637d1f9386b6f202560405160405180910390a2565b600160009054906101000a900473ffffffffffffffffffffffffffffffffffffffff1673ffffffffffffffffffffffffffffffffffffffff163373ffffffffffffffffffffffffffffffffffffffff16146112f4576040517f08c379a00000000000000000000000000000000000000000000000000000000081526004016112eb906124d7565b60405180910390fd5b6000600681111561130857611307612128565b5b600f60009054906101000a900460ff16600681111561132a57611329612128565b5b1461136a576040517f08c379a000000000000000000000000000000000000000000000000000000000815260040161136190612dae565b60405180910390fd5b6006600f60006101000a81548160ff021916908360068111156113905761138f612128565b5b0217905550600061139f611ecc565b9050600160009054906101000a900473ffffffffffffffffffffffffffffffffffffffff1673ffffffffffffffffffffffffffffffffffffffff167fea2df1906aa0678464bc2a22d5ed1eefedfa34eef24e9db4a75034297414befe82604051611409919061210d565b60405180910390a250565b600960009054906101000a900473ffffffffffffffffffffffffffffffffffffffff1673ffffffffffffffffffffffffffffffffffffffff163373ffffffffffffffffffffffffffffffffffffffff16146114a4576040517f08c379a000000000000000000000000000000000000000000000000000000000815260040161149b90612e1a565b60405180910390fd5b600360068111156114b8576114b7612128565b5b600f60009054906101000a900460ff1660068111156114da576114d9612128565b5b1461151a576040517f08c379a000000000000000000000000000000000000000000000000000000000815260040161151190612e86565b60405180910390fd5b80156115d4576004600f60006101000a81548160ff0219169083600681111561154657611545612128565b5b021790555042600881905550600061155c611deb565b9050600260009054906101000a900473ffffffffffffffffffffffffffffffffffffffff1673ffffffffffffffffffffffffffffffffffffffff167f737c69225d647e5994eab1a6c301bf6d9232beb2759ae1e27a8966b4732bc489826040516115c6919061210d565b60405180910390a25061167d565b6005600f60006101000a81548160ff021916908360068111156115fa576115f9612128565b5b02179055506000611609611ecc565b9050600160009054906101000a900473ffffffffffffffffffffffffffffffffffffffff1673ffffffffffffffffffffffffffffffffffffffff167fd7dee2702d63ad89917b6a4da9981c90c4d24f8c2bdfd64c604ecae57d8d065182604051611673919061210d565b60405180910390a2505b50565b6000600681111561169457611693612128565b5b600f60009054906101000a900460ff1660068111156116b6576116b5612128565b5b146116f6576040517f08c379a00000000000000000000000000000000000000000000000000000000081526004016116ed90612ef2565b60405180910390fd5b600073ffffffffffffffffffffffffffffffffffffffff16600260009054906101000a900473ffffffffffffffffffffffffffffffffffffffff1673ffffffffffffffffffffffffffffffffffffffff1614611787576040517f08c379a000000000000000000000000000000000000000000000000000000000815260040161177e90612f5e565b60405180910390fd5b600160009054906101000a900473ffffffffffffffffffffffffffffffffffffffff1673ffffffffffffffffffffffffffffffffffffffff163373ffffffffffffffffffffffffffffffffffffffff1603611817576040517f08c379a000000000000000000000000000000000000000000000000000000000815260040161180e90612fca565b60405180910390fd5b33600260006101000a81548173ffffffffffffffffffffffffffffffffffffffff021916908373ffffffffffffffffffffffffffffffffffffffff160217905550426006819055506001600f60006101000a81548160ff0219169083600681111561188557611884612128565b5b021790555060008054906101000a900473ffffffffffffffffffffffffffffffffffffffff1673ffffffffffffffffffffffffffffffffffffffff1663768784ad336040518263ffffffff1660e01b81526004016118e3919061239d565b600060405180830381600087803b1580156118fd57600080fd5b505af1158015611911573d6000803e3d6000fd5b505050503373ffffffffffffffffffffffffffffffffffffffff167f396b5ffff46457e3c237a58913543838900ffa6e2c10cd58997e5b173bd21f4b60065460405161195d919061210d565b60405180910390a2565b600c805461197490612638565b80601f01602080910402602001604051908101604052809291908181526020018280546119a090612638565b80156119ed5780601f106119c2576101008083540402835291602001916119ed565b820191906000526020600020905b8154815290600101906020018083116119d057829003601f168201915b505050505081565b60035481565b60008054906101000a900473ffffffffffffffffffffffffffffffffffffffff1681565b60055481565b60065481565b60008054906101000a900473ffffffffffffffffffffffffffffffffffffffff1673ffffffffffffffffffffffffffffffffffffffff163373ffffffffffffffffffffffffffffffffffffffff1614611ab9576040517f08c379a0000000000000000000000000000000000000000000000000000000008152600401611ab090612a71565b60405180910390fd5b600073ffffffffffffffffffffffffffffffffffffffff16600160009054906101000a900473ffffffffffffffffffffffffffffffffffffffff1673ffffffffffffffffffffffffffffffffffffffff1614611b4a576040517f08c379a0000000000000000000000000000000000000000000000000000000008152600401611b4190613036565b60405180910390fd5b600073ffffffffffffffffffffffffffffffffffffffff168673ffffffffffffffffffffffffffffffffffffffff1603611bb9576040517f08c379a0000000000000000000000000000000000000000000000000000000008152600401611bb0906130a2565b60405180910390fd5b428511611bfb576040517f08c379a0000000000000000000000000000000000000000000000000000000008152600401611bf29061310e565b60405180910390fd5b60003411611c3e576040517f08c379a0000000000000000000000000000000000000000000000000000000008152600401611c359061317a565b60405180910390fd5b60008484905011611c84576040517f08c379a0000000000000000000000000000000000000000000000000000000008152600401611c7b906131e6565b60405180910390fd5b85600160006101000a81548173ffffffffffffffffffffffffffffffffffffffff021916908373ffffffffffffffffffffffffffffffffffffffff16021790555034600381905550846004819055508383600a9182611ce4929190612815565b508181600b9182611cf6929190612815565b50426005819055506000600f60006101000a81548160ff02191690836006811115611d2457611d23612128565b5b0217905550505050505050565b600d8054611d3e90612638565b80601f0160208091040260200160405190810160405280929190818152602001828054611d6a90612638565b8015611db75780601f10611d8c57610100808354040283529160200191611db7565b820191906000526020600020905b815481529060010190602001808311611d9a57829003601f168201915b505050505081565b60085481565b600960009054906101000a900473ffffffffffffffffffffffffffffffffffffffff1681565b6000600354905060006003819055506000600260009054906101000a900473ffffffffffffffffffffffffffffffffffffffff1673ffffffffffffffffffffffffffffffffffffffff1682604051611e4290613237565b60006040518083038185875af1925050503d8060008114611e7f576040519150601f19603f3d011682016040523d82523d6000602084013e611e84565b606091505b5050905080611ec8576040517f08c379a0000000000000000000000000000000000000000000000000000000008152600401611ebf90613298565b60405180910390fd5b5090565b6000600354905060006003819055506000600160009054906101000a900473ffffffffffffffffffffffffffffffffffffffff1673ffffffffffffffffffffffffffffffffffffffff1682604051611f2390613237565b60006040518083038185875af1925050503d8060008114611f60576040519150601f19603f3d011682016040523d82523d6000602084013e611f65565b606091505b5050905080611fa9576040517f08c379a0000000000000000000000000000000000000000000000000000000008152600401611fa090613298565b60405180910390fd5b5090565b600080fd5b600080fd5b600080fd5b600080fd5b600080fd5b60008083601f840112611fdc57611fdb611fb7565b5b8235905067ffffffffffffffff811115611ff957611ff8611fbc565b5b60208301915083600182028301111561201557612014611fc1565b5b9250929050565b6000806020838503121561203357612032611fad565b5b600083013567ffffffffffffffff81111561205157612050611fb2565b5b61205d85828601611fc6565b92509250509250929050565b600073ffffffffffffffffffffffffffffffffffffffff82169050919050565b600061209482612069565b9050919050565b6120a481612089565b81146120af57600080fd5b50565b6000813590506120c18161209b565b92915050565b6000602082840312156120dd576120dc611fad565b5b60006120eb848285016120b2565b91505092915050565b6000819050919050565b612107816120f4565b82525050565b600060208201905061212260008301846120fe565b92915050565b7f4e487b7100000000000000000000000000000000000000000000000000000000600052602160045260246000fd5b6007811061216857612167612128565b5b50565b600081905061217982612157565b919050565b60006121898261216b565b9050919050565b6121998161217e565b82525050565b60006020820190506121b46000830184612190565b92915050565b600081519050919050565b600082825260208201905092915050565b60005b838110156121f45780820151818401526020810190506121d9565b60008484015250505050565b6000601f19601f8301169050919050565b600061221c826121ba565b61222681856121c5565b93506122368185602086016121d6565b61223f81612200565b840191505092915050565b600060208201905081810360008301526122648184612211565b905092915050565b600061227782612069565b9050919050565b6122878161226c565b82525050565b60006020820190506122a2600083018461227e565b92915050565b600080600080604085870312156122c2576122c1611fad565b5b600085013567ffffffffffffffff8111156122e0576122df611fb2565b5b6122ec87828801611fc6565b9450945050602085013567ffffffffffffffff81111561230f5761230e611fb2565b5b61231b87828801611fc6565b925092505092959194509250565b60008115159050919050565b61233e81612329565b811461234957600080fd5b50565b60008135905061235b81612335565b92915050565b60006020828403121561237757612376611fad565b5b60006123858482850161234c565b91505092915050565b61239781612089565b82525050565b60006020820190506123b2600083018461238e565b92915050565b6123c1816120f4565b81146123cc57600080fd5b50565b6000813590506123de816123b8565b92915050565b6000806000806000806080878903121561240157612400611fad565b5b600061240f89828a016120b2565b965050602061242089828a016123cf565b955050604087013567ffffffffffffffff81111561244157612440611fb2565b5b61244d89828a01611fc6565b9450945050606087013567ffffffffffffffff8111156124705761246f611fb2565b5b61247c89828a01611fc6565b92509250509295509295509295565b7f4e6f7420636f6d70616e79000000000000000000000000000000000000000000600082015250565b60006124c1600b836121c5565b91506124cc8261248b565b602082019050919050565b600060208201905081810360008301526124f0816124b4565b9050919050565b7f4e6f74207375626d697474656400000000000000000000000000000000000000600082015250565b600061252d600d836121c5565b9150612538826124f7565b602082019050919050565b6000602082019050818103600083015261255c81612520565b9050919050565b7f526561736f6e2072657175697265640000000000000000000000000000000000600082015250565b6000612599600f836121c5565b91506125a482612563565b602082019050919050565b600060208201905081810360008301526125c88161258c565b9050919050565b600082905092915050565b7f4e487b7100000000000000000000000000000000000000000000000000000000600052604160045260246000fd5b7f4e487b7100000000000000000000000000000000000000000000000000000000600052602260045260246000fd5b6000600282049050600182168061265057607f821691505b60208210810361266357612662612609565b5b50919050565b60008190508160005260206000209050919050565b60006020601f8301049050919050565b600082821b905092915050565b6000600883026126cb7fffffffffffffffffffffffffffffffffffffffffffffffffffffffffffffffff8261268e565b6126d5868361268e565b95508019841693508086168417925050509392505050565b6000819050919050565b600061271261270d612708846120f4565b6126ed565b6120f4565b9050919050565b6000819050919050565b61272c836126f7565b61274061273882612719565b84845461269b565b825550505050565b600090565b612755612748565b612760818484612723565b505050565b5b818110156127845761277960008261274d565b600181019050612766565b5050565b601f8211156127c95761279a81612669565b6127a38461267e565b810160208510156127b2578190505b6127c66127be8561267e565b830182612765565b50505b505050565b600082821c905092915050565b60006127ec600019846008026127ce565b1980831691505092915050565b600061280583836127db565b9150826002028217905092915050565b61281f83836125cf565b67ffffffffffffffff811115612838576128376125da565b5b6128428254612638565b61284d828285612788565b6000601f83116001811461287c576000841561286a578287013590505b61287485826127f9565b8655506128dc565b601f19841661288a86612669565b60005b828110156128b25784890135825560018201915060208501945060208101905061288d565b868310156128cf57848901356128cb601f8916826127db565b8355505b6001600288020188555050505b50505050505050565b6128ee826121ba565b67ffffffffffffffff811115612907576129066125da565b5b6129118254612638565b61291c828285612788565b600060209050601f83116001811461294f576000841561293d578287015190505b61294785826127f9565b8655506129af565b601f19841661295d86612669565b60005b8281101561298557848901518255600182019150602085019450602081019050612960565b868310156129a2578489015161299e601f8916826127db565b8355505b6001600288020188555050505b505050505050565b82818337600083830152505050565b60006129d283856121c5565b93506129df8385846129b7565b6129e883612200565b840190509392505050565b60006040820190508181036000830152612a0e8185876129c6565b9050612a1d60208301846120fe565b949350505050565b7f4f6e6c7920666163746f72790000000000000000000000000000000000000000600082015250565b6000612a5b600c836121c5565b9150612a6682612a25565b602082019050919050565b60006020820190508181036000830152612a8a81612a4e565b9050919050565b7f4172626974657220616c72656164792073657400000000000000000000000000600082015250565b6000612ac76013836121c5565b9150612ad282612a91565b602082019050919050565b60006020820190508181036000830152612af681612aba565b9050919050565b7f496e76616c696420617262697465720000000000000000000000000000000000600082015250565b6000612b33600f836121c5565b9150612b3e82612afd565b602082019050919050565b60006020820190508181036000830152612b6281612b26565b9050919050565b7f4e6f7420776f726b657200000000000000000000000000000000000000000000600082015250565b6000612b9f600a836121c5565b9150612baa82612b69565b602082019050919050565b60006020820190508181036000830152612bce81612b92565b9050919050565b7f446561646c696e65206e6f742070617373656400000000000000000000000000600082015250565b6000612c0b6013836121c5565b9150612c1682612bd5565b602082019050919050565b60006020820190508181036000830152612c3a81612bfe565b9050919050565b7f496e76616c696420737461746500000000000000000000000000000000000000600082015250565b6000612c77600d836121c5565b9150612c8282612c41565b602082019050919050565b60006020820190508181036000830152612ca681612c6a565b9050919050565b7f50726f6f66204349442072657175697265640000000000000000000000000000600082015250565b6000612ce36012836121c5565b9150612cee82612cad565b602082019050919050565b60006020820190508181036000830152612d1281612cd6565b9050919050565b60006060820190508181036000830152612d348187896129c6565b90508181036020830152612d498185876129c6565b9050612d5860408301846120fe565b9695505050505050565b7f43616e6e6f742063616e63656c00000000000000000000000000000000000000600082015250565b6000612d98600d836121c5565b9150612da382612d62565b602082019050919050565b60006020820190508181036000830152612dc781612d8b565b9050919050565b7f4e6f742061726269746572000000000000000000000000000000000000000000600082015250565b6000612e04600b836121c5565b9150612e0f82612dce565b602082019050919050565b60006020820190508181036000830152612e3381612df7565b9050919050565b7f4e6f206469737075746500000000000000000000000000000000000000000000600082015250565b6000612e70600a836121c5565b9150612e7b82612e3a565b602082019050919050565b60006020820190508181036000830152612e9f81612e63565b9050919050565b7f5469636b6574206e6f74206f70656e0000000000000000000000000000000000600082015250565b6000612edc600f836121c5565b9150612ee782612ea6565b602082019050919050565b60006020820190508181036000830152612f0b81612ecf565b9050919050565b7f416c726561647920636c61696d65640000000000000000000000000000000000600082015250565b6000612f48600f836121c5565b9150612f5382612f12565b602082019050919050565b60006020820190508181036000830152612f7781612f3b565b9050919050565b7f436f6d70616e792063616e6e6f7420636c61696d000000000000000000000000600082015250565b6000612fb46014836121c5565b9150612fbf82612f7e565b602082019050919050565b60006020820190508181036000830152612fe381612fa7565b9050919050565b7f416c726561647920696e697469616c697a656400000000000000000000000000600082015250565b60006130206013836121c5565b915061302b82612fea565b602082019050919050565b6000602082019050818103600083015261304f81613013565b9050919050565b7f496e76616c696420636f6d70616e790000000000000000000000000000000000600082015250565b600061308c600f836121c5565b915061309782613056565b602082019050919050565b600060208201905081810360008301526130bb8161307f565b9050919050565b7f496e76616c696420646561646c696e6500000000000000000000000000000000600082015250565b60006130f86010836121c5565b9150613103826130c2565b602082019050919050565b60006020820190508181036000830152613127816130eb565b9050919050565b7f416d6f756e74206d757374206265203e20300000000000000000000000000000600082015250565b60006131646012836121c5565b915061316f8261312e565b602082019050919050565b6000602082019050818103600083015261319381613157565b9050919050565b7f5469746c65207265717569726564000000000000000000000000000000000000600082015250565b60006131d0600e836121c5565b91506131db8261319a565b602082019050919050565b600060208201905081810360008301526131ff816131c3565b9050919050565b600081905092915050565b50565b6000613221600083613206565b915061322c82613211565b600082019050919050565b600061324282613214565b9150819050919050565b7f5472616e73666572206661696c65640000000000000000000000000000000000600082015250565b6000613282600f836121c5565b915061328d8261324c565b602082019050919050565b600060208201905081810360008301526132b181613275565b905091905056fea2646970667358221220e9c0006088101fdbf2b20ebbacb9599c58fe4aae13759f11f07a0915cd0ee57664736f6c63430008180033",
  "linkReferences": {},
  "deployedLinkReferences": {}
}